:100000000C942A000C9447000C9447000C94470071
:100010000C9447000C9447000C9447000C94470044
:100020000C9447000C9447000C9447000C94470034
:100030000C9447000C94F6060C941D070C9444078E
:100040000C942B090C9447000C9447000C94470027
:100050000C94470011241FBECFE5D8E0DEBFCDBF12
:1000600011E0A8E6B1E001C01D92A037B107E1F7A9
:1000700011E0A0E6B0E0E8EBF5E102C005900D92DA
:10008000A836B107D9F70E94660A0C94DA0A0C94D4
:100090000000EF92FF920F931F937B018C0120E0F1
:1000A00030E040E05FE40E94C50388238CF0C80183
:1000B000B70120E030E040E05FE40E94C1010E940F
:1000C000F5039B01AC01205030404040504806C031
:1000D000C801B7010E94F5039B01AC01B901CA0137
:1000E0001F910F91FF90EF900895A0E0B0E0EBE733
:1000F000F0E00C94A30ADC012B01FA019C919230F0
:1001000008F439C1EB018881823008F433C194309E
:1001100069F4843009F02FC111969C91119789815F
:10012000981709F428C1A0E6B0E025C1843009F48D
:1001300021C18230A9F4923009F01DC19A01AD01AC
:1001400088E0EA010990AE01E90109929E0181501F
:10015000C1F7E201898111969C918923818308C1AD
:10016000923009F407C112962D903C901397EB0141
:100170008A819B811496AD90BD90CD90DC901797AD
:10018000EC80FD800E811F819101281B390BB90184
:1001900037FF04C066277727621B730B6032710537
:1001A0000CF061C0121613066CF537014801062EDB
:1001B00004C096948794779467940A94D2F721E0C8
:1001C00030E040E050E004C0220F331F441F551FB1
:1001D0006A95D2F721503040404050402E213F21B7
:1001E00040235123211531054105510521F021E01E
:1001F00030E040E050E079018A01E628F72808293C
:1002000019293CC0232BD1F1260E371E350146019A
:10021000062E04C096948794779467940A94D2F734
:1002200021E030E040E050E004C0220F331F441FC3
:10023000551F6A95D2F721503040404050402A2146
:100240003B214C215D21211531054105510521F04E
:1002500021E030E040E050E059016A01A628B728CB
:10026000C828D9280BC0821593052CF01C01AA249C
:10027000BB24650103C0EE24FF24870111969C91E5
:10028000D20111968C91981709F445C0992339F041
:10029000A80197012A193B094C095D0906C0A6016E
:1002A00095012E193F09400B510B57FD08C01182D3
:1002B0003382228224833583468357831DC081E0A5
:1002C00081833382228288279927DC01821B930B4A
:1002D000A40BB50B84839583A683B7830DC0220F2F
:1002E000331F441F551F24833583468357838281E0
:1002F000938101979383828324813581468157813D
:10030000DA01C9010197A109B1098F5F9F4FAF4F72
:10031000BF4328F30BC0918333822282EA0CFB1C7B
:100320000C1D1D1DE482F5820683178383E0808304
:10033000248135814681578157FF1AC0C901AA27F8
:1003400097FDA095BA2F81709070A070B0705695EF
:10035000479537952795822B932BA42BB52B848318
:100360009583A683B7838281938101969383828349
:10037000DF0101C0D201CD01CDB7DEB7E2E10C94BF
:10038000BF0AA0E2B0E0E7ECF1E00C94AF0A6983A9
:100390007A838B839C832D833E834F835887E9E048
:1003A000EE2EF12CEC0EFD1ECE010196B7010E943F
:1003B000E6058E010F5E1F4FCE010596B8010E9423
:1003C000E6058A8991E089278A8BC701B801AE01C9
:1003D000475E5F4F0E9475000E941105A096E6E0FF
:1003E0000C94CB0AA0E2B0E0E8EFF1E00C94AF0A85
:1003F00069837A838B839C832D833E834F835887C5
:10040000F9E0EF2EF12CEC0EFD1ECE010196B701A6
:100410000E94E6058E010F5E1F4FCE010596B801C2
:100420000E94E605C701B801AE01475E5F4F0E941A
:1004300075000E941105A096E6E00C94CB0AA0E29C
:10044000B0E0E5E2F2E00C94A30A69837A838B833F
:100450009C832D833E834F835887CE010196BE0136
:10046000675F7F4F0E94E605CE010596BE016F5E75
:100470007F4F0E94E6059985923088F08989823005
:10048000C8F0943019F4823051F404C0843029F457
:10049000923081F480E690E0C6C0923049F420E0CA
:1004A0009A858A89981321E02A87CE010996BBC0D4
:1004B000823049F420E09A858A89981321E02A8BBA
:1004C000CE014196B0C02D843E844F8458886D88FB
:1004D0007E888F88988CEE24FF248701AA24BB2471
:1004E000650140E050E060E070E0E0E0F0E0C10174
:1004F00081709070892BE9F0E60CF71C081D191D1E
:100500009A01AB012A0D3B1D4C1D5D1D80E090E062
:10051000A0E0B0E0E614F7040805190520F481E036
:1005200090E0A0E0B0E0BA01A901480F591F6A1F8E
:100530007B1FAA0CBB1CCC1CDD1C97FE08C081E0F5
:1005400090E0A0E0B0E0A82AB92ACA2ADB2A3196B6
:10055000E032F10549F0660C771C881C991C569412
:10056000479437942794C3CFFA85EA892B893C892D
:100570008B859C85280F391F2E5F3F4F17C0CA01FE
:1005800081709070892B61F016950795F794E79428
:1005900080E090E0A0E0B0E8E82AF92A0A2B1B2BC3
:1005A00076956795579547952F5F3F4F77FDE7CF36
:1005B0000CC0440F551F661F771F17FD4160EE0CDE
:1005C000FF1C001F111F21503040403090E05907A0
:1005D00090E0690790E4790760F32B8F3C8FDB0193
:1005E000CA018F779070A070B07080349105A1051A
:1005F000B10561F447FD0AC0E114F10401051105DC
:1006000029F0405C5F4F6F4F7F4F40781A8EFE1786
:1006100011F081E08A8F4D8F5E8F6F8F78A383E01A
:10062000898FCE0149960E941105A096E2E10C94B3
:10063000BF0AA8E1B0E0EFE1F3E00C94AB0A6983F4
:100640007A838B839C832D833E834F835887B9E0C5
:10065000EB2EF12CEC0EFD1ECE010196B7010E948F
:10066000E6058E010F5E1F4FCE010596B8010E9470
:10067000E6052985223008F47EC03989323010F42D
:10068000B8017CC08A859A8989278A87243011F02D
:10069000223031F4231709F06EC060E670E06EC0BE
:1006A000343039F41D861E861F86188A1C861B86E8
:1006B00004C0323021F484E08987B7015FC02B8504
:1006C0003C858B899C89281B390B3C872B87ED84C3
:1006D000FE840F851889AD88BE88CF88D88CEA142F
:1006E000FB040C051D0540F4EE0CFF1C001F111F40
:1006F000215030403C872B8720E030E040E050E044
:1007000080E090E0A0E0B0E460E070E0EA14FB0478
:100710000C051D0540F0282B392B4A2B5B2BEA18C2
:10072000FB080C091D09B695A79597958795EE0CC2
:10073000FF1C001F111F6F5F7F4F6F31710531F775
:10074000DA01C9018F779070A070B0708034910584
:10075000A105B10561F427FD0AC0E114F10401050A
:10076000110529F0205C3F4F4F4F5F4F20782D87B8
:100770003E874F87588BBE01675F7F4FCB010E943A
:1007800011056896EAE00C94C70AA8E1B0E0EBEC2A
:10079000F3E00C94AF0A69837A838B839C832D8367
:1007A0003E834F83588789E0E82EF12CEC0EFD1E26
:1007B000CE010196B7010E94E6058E010F5E1F4F24
:1007C000CE010596B8010E94E6058985823040F089
:1007D0008989823028F0C701B8010E945E0601C0F5
:1007E0008FEF6896E6E00C94CB0AACE0B0E0EBEF5C
:1007F000F3E00C94B30A69837A838B839C83CE01E4
:100800000196BE016B5F7F4F0E94E6058D818230AD
:1008100061F1823050F1843021F48E81882351F1CE
:100820002EC02F81388537FD20C06E812F313105D4
:100830001CF06623F9F023C08EE190E0821B930B3D
:1008400029853A854B855C8504C056954795379533
:1008500027958A95D2F76623B1F05095409530954B
:1008600021953F4F4F4F5F4F0EC020E030E040E0FA
:1008700050E009C02FEF3FEF4FEF5FE704C020E0EB
:1008800030E040E050E8B901CA012C96E2E00C9457
:10089000CF0AA8E0B0E0EFE4F4E00C94AB0A7B01EF
:1008A0008C01611571058105910519F482E0898338
:1008B00060C083E089838EE1C82ED12CDC82CB829C
:1008C000ED82FE820F831887C801B7010E94C2041F
:1008D000FC013197F7FF3BC0222733272E1B3F0B2C
:1008E00057016801022E04C0D694C794B794A79408
:1008F0000A94D2F740E050E060E070E081E090E0E0
:10090000A0E0B0E004C0880F991FAA1FBB1F2A9562
:10091000D2F70197A109B1098E219F21A023B1230C
:100920000097A105B10521F041E050E060E070E0E2
:100930004A295B296C297D294D835E836F837887E3
:100940008EE190E08E1B9F0B9C838B8312C03097AF
:1009500081F00E2E04C0EE0CFF1C001F111F0A9424
:10096000D2F7ED82FE820F831887CE1ADF0ADC826F
:10097000CB821A82CE0101960E9411052896EAE0E8
:100980000C94C70AEF92FF920F931F937B018C0187
:1009900080E0E81680E0F80681E0080780E01807AC
:1009A00088F48FEFE816F1040105110531F028F005
:1009B00088E090E0A0E0B0E017C080E090E0A0E028
:1009C000B0E012C080E0E81680E0F80680E008079A
:1009D00081E0180728F088E190E0A0E0B0E004C0D2
:1009E00080E190E0A0E0B0E020E230E040E050E0C4
:1009F000281B390B4A0B5B0B04C016950795F7941F
:100A0000E7948A95D2F7F701E859FF4F8081281BB8
:100A1000310941095109C9011F910F91FF90EF90D0
:100A20000895DF92EF92FF920F931F93FC01E480F1
:100A3000F58006811781D1808081823048F480E082
:100A400090E0A0E1B0E0E82AF92A0A2B1B2BA5C010
:100A5000843009F49FC0823021F4EE24FF24870102
:100A600005C0E114F1040105110519F4E0E0F0E01E
:100A700096C0628173819FEF623879070CF05BC08A
:100A800022E83FEF261B370B2A3131052CF020E0FE
:100A900030E040E050E02AC0B801A701022E04C0B7
:100AA00076956795579547950A94D2F781E090E03F
:100AB000A0E0B0E004C0880F991FAA1FBB1F2A95B1
:100AC000D2F70197A109B1098E219F21A023B1235B
:100AD0000097A105B10521F081E090E0A0E0B0E031
:100AE0009A01AB01282B392B4A2B5B2BDA01C90168
:100AF0008F779070A070B07080349105A105B1051A
:100B000039F427FF09C0205C3F4F4F4F5F4F04C0AF
:100B1000215C3F4F4F4F5F4FE0E0F0E02030A0E01E
:100B20003A07A0E04A07A0E45A0710F0E1E0F0E03D
:100B300079018A0127C06038710564F5FB01E1582D
:100B4000FF4FD801C7018F779070A070B0708034CC
:100B50009105A105B10539F4E7FE0DC080E490E0F0
:100B6000A0E0B0E004C08FE390E0A0E0B0E0E80EC9
:100B7000F91E0A1F1B1F17FF05C016950795F7944E
:100B8000E794319687E016950795F794E7948A9550
:100B9000D1F705C0EE24FF248701EFEFF0E06E2FC0
:100BA000679566276795902F9F77D794DD24D79414
:100BB0008E2F8695492F462B582F5D29B701CA01E4
:100BC0001F910F91FF90EF90DF900895FC01DB01E2
:100BD000408151812281622F6F7770E0221F22278E
:100BE000221F9381892F880F822B282F30E0991F95
:100BF0009927991F11969C93119721153105A9F5F5
:100C0000411551056105710511F482E037C082E894
:100C10009FEF13969C938E9312979A01AB0167E016
:100C2000220F331F441F551F6A95D1F783E08C9321
:100C30000DC0220F331F441F551F12968D919C919A
:100C40001397019713969C938E931297203080E010
:100C5000380780E0480780E4580758F314962D932E
:100C60003D934D935C93179708952F3F310579F489
:100C7000411551056105710519F484E08C930895BF
:100C800064FF03C081E08C9312C01C9210C02F57E8
:100C9000304013963C932E93129783E08C9387E019
:100CA000440F551F661F771F8A95D1F770641496FD
:100CB0004D935D936D937C93179708951F93DC017B
:100CC000FB019C91923008F447C08081823008F487
:100CD00043C0943051F411961C91843099F5818170
:100CE000682F70E0611B71093FC0843021F09230A1
:100CF00031F48230B9F18181882389F12DC01196B8
:100D00001C9111978230F1F081811817D9F4129655
:100D10002D913C911397828193818217930794F0D0
:100D200028173907BCF014968D919D910D90BC91B8
:100D3000A02D2481358146815781281739074A071C
:100D40005B0718F4112341F00AC082179307A40728
:100D5000B50740F4112319F061E070E005C06FEFB2
:100D60007FEF02C060E070E0CB011F9108955498BE
:100D7000089553980895549A0895539A089581B503
:100D80008F7B81BD81B58F7E81BD81B58F7D81BD1A
:100D900081B5877F81BD81B5826081BD81B5846069
:100DA00081BD529887E689B9539A549A08955D9BFC
:100DB000FECFE9E2F0E0838308955F9BFECF8CB124
:100DC0000895579A0895569A0895559A08959093BC
:100DD000690180936801089590936D0180936C017F
:100DE000089590936B0180936A0108951F920F926A
:100DF0000FB60F9211242F933F934F935F936F93EE
:100E00007F938F939F93AF93BF93EF93FF93E09163
:100E10006801F09169010995FF91EF91BF91AF9140
:100E20009F918F917F916F915F914F913F912F9102
:100E30000F900FBE0F901F9018951F920F920FB634
:100E40000F9211242F933F934F935F936F937F9350
:100E50008F939F93AF93BF93EF93FF93E0916C01B8
:100E6000F0916D010995FF91EF91BF91AF919F9125
:100E70008F917F916F915F914F913F912F910F9043
:100E80000FBE0F901F9018951F920F920FB60F92E2
:100E900011242F933F934F935F936F937F938F937F
:100EA0009F93AF93BF93EF93FF93E0916A01F0910B
:100EB0006B010995FF91EF91BF91AF919F918F9138
:100EC0007F916F915F914F913F912F910F900FBE46
:100ED0000F901F901895813009F1813030F08230E9
:100EE000B1F1833009F064C04BC0442359F02AB3F8
:100EF00081E090E002C0880F991F6A95E2F7282BE5
:100F00002ABB08952AB381E090E002C0880F991FA0
:100F10006A95E2F7809582238ABB0895442359F0AD
:100F200027B381E090E002C0880F991F6A95E2F72D
:100F3000282B27BB089527B381E090E002C0880FDB
:100F4000991F6A95E2F78095822387BB0895442311
:100F500059F024B381E090E002C0880F991F6A9590
:100F6000E2F7282B24BB089524B381E090E002C06F
:100F7000880F991F6A95E2F78095822384BB0895B4
:100F8000442359F021B381E090E002C0880F991FFB
:100F90006A95E2F7282B21BB089521B381E090E008
:100FA00002C0880F991F6A95E2F78095822381BB62
:100FB0000895813009F1813030F08230B1F1833011
:100FC00009F064C04BC0442359F02BB381E090E09A
:100FD00002C0880F991F6A95E2F7282B2BBB089552
:100FE0002BB381E090E002C0880F991F6A95E2F769
:100FF000809582238BBB0895442359F028B381E068
:1010000090E002C0880F991F6A95E2F7282B28BB51
:10101000089528B381E090E002C0880F991F6A9577
:10102000E2F78095822388BB0895442359F025B3C5
:1010300081E090E002C0880F991F6A95E2F7282BA3
:1010400025BB089525B381E090E002C0880F991F69
:101050006A95E2F78095822385BB0895442359F071
:1010600022B381E090E002C0880F991F6A95E2F7F1
:10107000282B22BB089522B381E090E002C0880FA4
:10108000991F6A95E2F78095822382BB089581308B
:1010900051F0813030F0823041F0833079F080E0DF
:1010A000089589B303C086B301C083B390E002C042
:1010B000959587956A95E2F78170089580B390E0E1
:1010C00002C0959587956A95E2F781700895813001
:1010D00091F0813028F08230C9F0833061F521C071
:1010E0002BB381E090E002C0880F991F6A95E2F768
:1010F00028272BBB089528B381E090E002C0880F19
:10110000991F6A95E2F7282728BB089525B381E047
:1011100090E002C0880F991F6A95E2F7282725BB47
:10112000089522B381E090E002C0880F991F6A956C
:10113000E2F7282722BB0895813049F0813028F05A
:10114000823039F0833041F406C06ABB089567BB32
:10115000089564BB089561BB0895813049F08130E2
:1011600028F0823039F0833041F406C06BBB08951B
:1011700068BB089565BB089562BB08956623B1F40A
:10118000813051F0813028F0823049F0833031F5E0
:1011900009C08BB38F7015C088B38F7016C085B32C
:1011A0008F7017C082B38F7082BB0895813059F061
:1011B000813028F0823059F0833081F40CC08BB339
:1011C000807F8BBB089588B3807F88BB089585B3EB
:1011D000807F85BB089582B3807F82BB08953E9A4D
:1011E0003F983D98309A319A329A379A08953E9AAC
:1011F0003F983D98309A319A329A379A339A0895A7
:1012000097B1907E97B997B18770892B87B9089568
:1012100097B1907E97B997B18770892B87B9369A25
:10122000349BFECF24B135B1C901089597B1907EAA
:1012300097B997B18770892B87B986B124B135B139
:10124000C901089524B135B1C901089590936F0182
:1012500080936E0108951F920F920FB60F92112482
:101260002F933F934F935F936F937F938F939F93AE
:10127000AF93BF93EF93FF93E0916E01F0916F01F5
:101280000995FF91EF91BF91AF919F918F917F91C0
:101290006F915F914F913F912F910F900FBE0F90E3
:1012A0001F9018950E94080908950E9408099C0142
:1012B000220F331F220F331F820F931F6FEF73E034
:1012C0000E948F0A80E090E00E94490420E030E014
:1012D00040E85FE30E94C1019B01AC0160E070E067
:1012E00088E492E40E94190320E030E048EC51E4E5
:1012F0000E94C10120E030E046E952E40E94190357
:1013000020E030E044EB52E40E941F020E944900BA
:10131000CB0108950E94EF0808950E94E506089504
:101320000E94E30608950E94E10608950E94DD06EA
:1013300008950E94D70608950E94BF060895AF92AF
:10134000BF92CF92DF92EF92FF920F931F93DF93A2
:10135000CF93CDB7DEB72A970FB6F894DEBF0FBE96
:10136000CDBF09831A832B833C834D835E836F83B8
:10137000788789879A87EB80FC80CD80DE80AF807C
:10138000B88409851A8589819A818E9710F481E342
:1013900001C080E30E9499098EE2E816F10410F47E
:1013A00081E301C080E30E9499098EE2C816D1044E
:1013B00010F481E301C080E30E9499098EE2A8162F
:1013C000B10410F481E301C080E30E949909033362
:1013D000110570F40932110508F50531110520F4E5
:1013E0000B301105A8F412C00F31110598F014C08C
:1013F0000734110520F40D331105A0F411C0013597
:10140000110590F00B35110598F410C081E311C05F
:1014100082E30FC083E30DC084E30BC085E309C002
:1014200086E307C087E305C088E303C089E301C002
:1014300080E30E9499092A960FB6F894DEBF0FBE8A
:10144000CDBFCF91DF911F910F91FF90EF90DF9073
:10145000CF90BF90AF9008958F929F92AF92BF921E
:10146000CF92DF92EF92FF920F931F938C0180E057
:101470000E9452094C0184E00E9452095C0185E0FF
:101480000E9452096C0186E00E9452097C0187E0AB
:101490000E945509F80191878087F782E682D582FC
:1014A000C482B382A28291828082C8011F910F916F
:1014B000FF90EF90DF90CF90BF90AF909F908F9074
:1014C00008950E948A090E949C090895EF92FF9254
:1014D0000F931F93DF93CF93CDB7DEB72A970FB645
:1014E000F894DEBF0FBECDBF8E010F5F1F4F8AE0A5
:1014F000F80111928A95E9F70E94610A7801C70103
:101500000E942C0A09811A812B813C814D815E81C8
:101510006F81788589859A850E949F09F0CFAA1BE3
:10152000BB1B51E107C0AA1FBB1FA617B70710F0CE
:10153000A61BB70B881F991F5A95A9F78095909500
:10154000BC01CD0108952F923F924F925F926F920E
:101550007F928F929F92AF92BF92CF92DF92EF9243
:10156000FF920F931F93CF93DF93CDB7DEB7CA1BC4
:10157000DB0B0FB6F894DEBF0FBECDBF09942A88EF
:10158000398848885F846E847D848C849B84AA8497
:10159000B984C884DF80EE80FD800C811B81AA8124
:1015A000B981CE0FD11D0FB6F894DEBF0FBECDBFEF
:0815B000ED010895F894FFCF4E
:1015B8000000000000000000000102020303030312
:1015C80004040404040404040505050505050505CB
:1015D80005050505050505050606060606060606AB
:1015E8000606060606060606060606060606060693
:1015F800060606060606060607070707070707077B
:101608000707070707070707070707070707070762
:101618000707070707070707070707070707070752
:101628000707070707070707070707070707070742
:10163800070707070707070708080808080808082A
:101648000808080808080808080808080808080812
:101658000808080808080808080808080808080802
:1016680008080808080808080808080808080808F2
:1016780008080808080808080808080808080808E2
:1016880008080808080808080808080808080808D2
:1016980008080808080808080808080808080808C2
:1016A80008080808080808080808080808080808B2
:0816B8000808080808080808EA
:00000001FF
